S0180000535441525445525F4B49545F44454D4F2E737265631C
S214400000B84E0020CD474000C9474000C947400091
S214400010C9474000C9474000C947400000000000AB
S214400020000000000000000000000000C132400058
S214400030C947400000000000050340006102400040
S214400040C9474000C9474000C9474000D532400034
S214400050C9474000C9474000C9474000C94740001B
S214400060C9474000C9474000C947400031414000A9
S2144000704D41400069414000C9474000C9474000E3
S214400080C9474000C9474000C9474000C9474000EB
S214400090C9474000C9474000C9474000C9474000DB
S2144000A0C9474000C9474000C9474000C9474000CB
S2144000B0C9474000C9474000C9474000C9474000BB
S2144000C0C9474000C94740006D1B4000C947400033
S2144000D008B50548054B191A062900D808BD044A34
S2144000E0002AFBD09047F9E72C8740002F87400036
S2144000F00000000008B50748074B191A8A1002EBA3
S214400100D273591000D108BD044A002AFBD090474C
S214400110F9E700BF2C8740002C8740000000000015
S21440012010B5064C237843B9FFF7D2FF044810B108
S2144001300448AFF300800121217010BD000D00205F
S214400140000000002C87400008B5084B1BB108484B
S2144001500849AFF300800848016811B1074A02B168
S2144001609047BDE80840FFF7C5BF00BF000000004D
S2144001702C874000040D00202C8740000000000023
S214400180FEE700BF70B441F26033C2F20003186865
S21440019010B341F6B815C2F200052E6841F2743429
S2144001A0C2F2000404EB061441F26031C2F20001D0
S2144001B00FC984E80F0006F1010348F21F52C5F24A
S2144001C0EB1282FB03104FEAE376C6EB60144FF067
S2144001D0640101FB14332B6040F61C55C2F2000547
S2144001E02E6841F26034C2F2000441F27432C2F228
S2144001F0000202EB06100FC884E80F0006F1010368
S21440020048F21F51C5F2EB1181FB03124FEAE3702F
S214400210C0EB62124FF0640101FB12332B6070BCDE
S214400220704700BF4FF0000241F6BC13C2F2000315
S2144002301A604EF21003CEF200034AF2DF51C0F2CB
S214400240010159604FF46D41CEF200014FF0F000CD
S21440025081F823009A604FF007021A60704700BF8B
S21440026010B5EFF3098323E9F00F83F3098840F2D2
S2144002700C03C2F200031878D0B1EFF30983B3E859
S214400280F00F83F309884FF0000440F20C00C2F2EE
S2144002900000047040F28511C0F24001884741F2E8
S2144002A06033C2F200031C735A6882F3098810BD9B
S2144002B0EFF3098141F26034C2F20004616040F21B
S2144002C08512C0F240029047636883F3098841F282
S2144002D06030C2F20000017B61B141F26033C2F28D
S2144002E000034FF000021A73EFF3098323E9F00F7F
S2144002F083F30988EFF30983B3E8F00F83F30988A3
S21440030010BD00BF704700BFF0B441F6B413C2F250
S21440031000031D68632D02DD4FF0FF305DE040F6C0
S2144003202056C2F200064FEA0517F419F1514FF075
S2144003300101217341F27037C2F200073B68D218C0
S21440034002F1200647F6B861C2F20001A1EB86032F
S214400350A360A3F1800666603A604FF0000743F85A
S214400360807C43F87C7C43F8787C43F8747C43F884
S214400370707C40F28112C0F2400243F86C2C43F885
S214400380680C4FF0045043F8640C41F6B817C2F2BC
S2144003900007D7F800C041F27431C2F2000101EB09
S2144003A00C1694E80F0086E80F000CF1010348F2A3
S2144003B01F52C5F2EB1282FB03104FEAE371C1EB0A
S2144003C060124FF0640000FB12333B6005F10105FC
S2144003D041F6B411C2F200010D60F0BC704700BF98
S2144003E041F65823C2F200031A7802F1FF30C1B238
S2144003F0197070474FF00000704700BF4FF0000084
S214400400704700BF41F62C43C2F20003187810F044
S214400410800F20D000F06001202947D141F62C42C1
S214400420C2F200025378212B43D141F62C40C2F24F
S2144004300000C18807293FD141F62C43C2F2000391
S21440044041F6C012C2F200029A604FF0070098814F
S2144004504FF00100704700F0600120292FD141F68F
S2144004602C42C2F200025078202804D0222814BF22
S21440047000200120704741F62C43C2F20003D88882
S21440048007281FD141F62C41C2F2000140F2CD426E
S214400490C0F240020A6141F6C013C2F200038B600C
S2144004A04FF0070088814FF0010070474FF0000082
S2144004B070474FF0000070474FF0000070474FF015
S2144004C0000070474FF00000704700BF704700BF05
S2144004D030B583B041F66C23C2F20003187800288A
S2144004E040F0DE8042F67121C0F24001884760B19C
S2144004F041F66024C2F20004248842F6F920C0F295
S2144005004000804784420DD1CAE041F66022C2F2E4
S2144005100002148842F6E523C0F24003984784421E
S21440052000F0BE80EFF31085D5F1010538BF0025F9
S21440053072B6BFF35F8F40F2AC41C2F200014FF09B
S21440054000020A7041F6CC13C2F200031C7841F652
S214400550D010C2F2000030F8141079BB41F6C81330
S214400560C2F200031A8802F101021A8042F6712094
S214400570C0F24000804730B941F6C811C2F20001CF
S2144005800B88632B0DD942F67122C0F24002904789
S214400590A0B141F6C810C2F200000188B1F5487F0C
S2144005A00CD2002D7CD040F2AC43C2F200034FF098
S2144005B001021A70BFF35F8F62B671E041F6C8134E
S2144005C0C2F200034FF000021A8041F60030C2F239
S2144005D00000017849B9944214BF0022012241F636
S2144005E0CC13C2F200031A7003E0D4F1010438BF02
S2144005F0002441F66C20C2F200004FF00102027067
S2144006003DB140F2AC45C2F200052A70BFF35F8FA1
S21440061062B6254641F6D011C2F2000131F81440C8
S214400620403C18BF0124DCB142F67122C0F24002C1
S214400630904750B142F6F920C0F24000804741F65C
S2144006406022C2F20002108011E042F6E521C0F2BC
S2144006504001884741F66023C2F20003188006E056
S21440066041F66023C2F200034FF00000188041F6C6
S214400670D011C2F2000131F8153040F2B960C0F234
S214400680400000904FF08100214641F6D414C2F25B
S214400690000404EB851242F6F564C0F24004A0471D
S2144006A003B030BD08B54FF0000040F2D143C0F271
S2144006B04003984708BD00BF08B5E8B941F6CC13DB
S2144006C0C2F200031978D1F1010138BF002141F68A
S2144006D0D013C2F2000323F8110041F60031C2F2F3
S2144006E00001087041F66C22C2F20002107040F21F
S2144006F0D143C0F24003984708BD00BF08B541F655
S214400700CA13C2F200031A7802F1FF30C1B2197060
S2144007101B7843F21163C0F24003984741F66420C9
S214400720C2F200004FF00002027008BD08B54FF05C
S214400730000241F65823C2F200031A70114641F6F1
S2144007400430C2F20000028041F67023C2F2000379
S2144007504FF0A10018704FF0200058705A809A80D1
S2144007604FF00200D8801A8141F6C013C2F200034F
S2144007704FF4E1321A60197159714FF008019971BE
S21440078043F20160C0F24000804758B141F658231A
S214400790C2F200031A7802F10102D1B219704FF08A
S2144007A0010008BD4FF0000008BD00BFEFF3108306
S2144007B072B6BFF35F8F40F2AC42C2F200024FF017
S2144007C00001117041F65C20C2F20000028890B22F
S2144007D041F66821C2F20001097841F65422C2F27D
S2144007E0000232F81110081A4BB940F2AC43C2F27C
S2144007F000034FF001021A70BFF35F8F62B6704776
S21440080008B540F2AD73C0F240039847003018BFB9
S214400810012008BD10B582B0EFF31083D3F101007C
S21440082038BF002072B6BFF35F8F40F2AC42C2F2D0
S21440083000024FF00001117041F66824C2F2000435
S214400840247841F6FC23C2F200031A786AB941F6CE
S2144008505C21C2F200010B889AB241F65421C2F2E2
S214400860000131F8143093420ED900284AD040F2A5
S214400870AC40C2F200004FF001020270BFF35F8F3F
S21440088062B64FF000003FE041F65C22C2F2000242
S2144008904FF0000111808C4214BF0021012141F627
S2144008A06823C2F20003197041F6FC22C2F200022D
S2144008B04FF00101117038B140F2AC40C2F2000076
S2144008C00170BFF35F8F62B64FF0000040F6010242
S2144008D0C0F24002904740F60D11C0F24001009130
S2144008E04FF002004FF0010141F67C23C2F20003B4
S2144008F003EB84124FF0400342F6F564C0F2400426
S214400900A04701E04FF0000002B010BD10B582B025
S21440091088BB41F66823C2F200031878D0F1010381
S21440092038BF0023A9B940F60D14C0F24004009425
S21440093010464FF0010141F67C22C2F2000202EB63
S21440094083124FF0400342F6F564C0F24004A047DD
S21440095011E041F65422C2F2000222F813104FF082
S214400960000041F6FC21C2F20001087040F6150373
S214400970C0F24003984702B010BD00BF38B54FF0F4
S214400980000441F6CA13C2F200031C7041F66C2004
S214400990C2F20000047041F60031C2F200010C7051
S2144009A041F6CC12C2F20002147041F6D013C2F2E5
S2144009B0000325461C805C8041F66020C2F20000A1
S2144009C00480204640F2D141C0F24001884741F6BB
S2144009D0FC22C2F20002147041F66823C2F2000301
S2144009E01C7041F65420C2F20000048041F65C219F
S2144009F0C2F200010C80204640F61502C0F24002CA
S214400A00904798B141F6CA13C2F20003187800F135
S214400A100100C1B219701A78012A0AD14FF00100BC
S214400A2041F66423C2F20003187038BD4FF0000050
S214400A3038BD4FF0010038BD41F60833C2F200031E
S214400A40186801684A888818704700BF38B5054658
S214400A500C4640F63923C0F24003984702462878B1
S214400A602818824211D94178042911D0A14205D1D3
S214400A7038BD417804290ED0A1420ED00378C01864
S214400A808242F6D84FF0000038BD4FF0000038BD27
S214400A904FF0000038BD4FF0000038BD70B5054639
S214400AA00E4641F61233C2F200031878002831D0C1
S214400AB041F60831C2F200010A6814682379AB4255
S214400AC02BD941F61430C2F20000046040F63921BA
S214400AD0C0F240018847844222D26278042A0DD16F
S214400AE0A378AB420AD1E178B14207D141F614333C
S214400AF0C2F200031C604FF0010070BD2278A418BB
S214400B00A042EAD841F61430C2F2000004604FF02A
S214400B10000070BD4FF0000070BD4FF0000070BD8B
S214400B204FF0000070BD00BF08B541F62C43C2F23E
S214400B300003588800F07F0042F67921C0F2400159
S214400B40884708BD2DE9F041804640F69D23C0F217
S214400B504003984738B341F61430C2F200000468A8
S214400B604FF0050640F64D25C0F2400542F61137D7
S214400B70C0F2400720463146A847044638B1807840
S214400B80E178A288B8470028F4D1BDE8F08141F664
S214400B900831C2F200010A68536853F82800016819
S214400BA08847BDE8F0814FF00000BDE8F08100BF07
S214400BB02DE9F04104464FF0000140F69D23C0F277
S214400BC040039847002830D041F60830C2F2000073
S214400BD001684A6852F82480D8F80C309847014695
S214400BE0204640F69D22C0F24002904708B341F6A8
S214400BF01434C2F2000424684FF0050640F64D2532
S214400C00C0F2400542F64D47C0F240072046314606
S214400C10A847044610B18078B847F7E7D8F80400EC
S214400C2080474FF00100BDE8F0814FF00000BDE87E
S214400C30F0814FF00000BDE8F08100BF70B541F68E
S214400C401233C2F200031878D8B141F60831C2F226
S214400C5000010A681368187998B14FF0000440F60E
S214400C60B136C0F2400641F60835C2F200052046CD
S214400C70B04704F10104E4B229680A681379A34234
S214400C80F5D841F61230C2F200004FF00001017074
S214400C9041F61033C2F200034FF001021A8070BDD5
S214400CA038B541F61233C2F200031878D8B141F68F
S214400CB00831C2F200010B681A68107998B14FF0FB
S214400CC0000441F60835C2F200055B6853F824106C
S214400CD00A6902B1904704F10104E4B22B6818682F
S214400CE00179A142F1D838BDF8B541F62C43C2F29D
S214400CF000034FF000029A811A615A61187810F08A
S214400D00800F00F0BA8241F62C42C2F20002D2882E
S214400D10002A40F0B782A4E210F01F0040F0868020
S214400D2041F62C41C2F200014B78062B16D0082B18
S214400D3069D0002B7AD1022A0DD141F61030C2F28A
S214400D4000004FF0020142F60133C0F240039847DC
S214400D504FF001000AE24FF0000007E241F62C4057
S214400D60C2F2000041884FEA1123022B10D0032B19
S214400D7025D0012B3BD140F23802C2F20002116866
S214400D800846097842F60133C0F2400398471EE011
S214400D90C8B240F23801C2F200010B685A7C824267
S214400DA028D9A6494B6853F8302010465188A44BA2
S214400DB09847A44881684FF002024A7007E011F055
S214400DC0FF0F1AD1A0484FF004019D4A904741F6C4
S214400DD02C43C2F20003D8889989814210D941F643
S214400DE02C42C2F2000290814FF00100BEE14FF06B
S214400DF00000BBE14FF00000B8E14FF00000B5E165
S214400E004FF00100B2E1012A0DD141F61230C2F294
S214400E1000004FF0010142F60132C0F24002904716
S214400E204FF00100A2E14FF000009FE1012834D1CD
S214400E3041F62C41C2F200014B780A2B2DD1012AF3
S214400E401FD182480378FBB17E4C2479804D2D68B3
S214400E5029680A79A2421AD920464FF000017D4BF4
S214400E609847B8B1686850F82410CA6890477A4BDB
S214400E70187018464FF00101714A90474FF0010034
S214400E8074E14FF0000071E14FF000006EE14FF06A
S214400E9000006BE14FF0000068E1022840F06881F6
S214400EA041F62C40C2F200004178002940F05681BD
S214400EB0022A0DD1634A1079684B984768490880E2
S214400EC008464FF002015E4A90474FF001004DE160
S214400ED04FF000004AE110F01F0340F0C38041F697
S214400EE02C41C2F200014A7802F1FF30082800F295
S214400EF0B980DFE810F01E00B7003601B7000900E1
S214400F00B700B700B7003C0041F62C40C2F20000E4
S214400F10C18859B941F62C43C2F2000340F6293243
S214400F20C0F240021A614FF001001FE14FF000008E
S214400F301CE141F62C40C2F20000C18889B941F656
S214400F402C43C2F200035A88012A0DD141F61030D4
S214400F50C2F20000018821F0020303804FF0010036
S214400F6004E14FF0000001E14FF00000FEE041F6E2
S214400F702C42C2F20002D08800284CD142F6BD2155
S214400F80C0F240018847002848D041F62C43C2F2C0
S214400F9000039A7840F23800C2F2000001684B7CA9
S214400FA09A423EDC40F63D42C0F24002904741F64F
S214400FB02C40C2F20000817841F61233C2F20003A0
S214400FC0197089B301F1FF3340F23802C2F20002D1
S214400FD0526802EBC30041F60831C2F200010860D5
S214400FE052F833301A7912B34FF00004264640F6D2
S214400FF04535C0F240050F4620463146A847C8B1A1
S21440100004F10104E4B2386801680B79A342F3D8CE
S2144010104FF00100AAE04FF00000A7E04FF00000BC
S214401020A4E04FF00000A1E04FF001009EE04FF03A
S21440103001009BE04FF0000098E000BF3800002021
S214401040012B40002C1C0020A8000020121B002072
S214401050081B00209D0A40000C1B00207D2C4000F1
S2144010600E1B0020012B2DD141F62C41C2F200016F
S2144010704A780B2A26D141F62C40C2F20000C2889C
S214401080BAB941F61233C2F200031978A1B141F65B
S2144010902C45C2F200052C796D88204640F6B132C8
S2144010A0C0F24002904750B12046E9B2784B98478C
S2144010B05CE04FF0000059E04FF0000056E04FF083
S2144010C0000053E0022B53D141F62C43C2F20003FA
S2144010D05878012802D0032846D11CE041F62C431C
S2144010E0C2F20003D88880B941F62C41C2F2000112
S2144010F04A886AB941F62C43C2F20003187942F690
S214401100ED51C0F24001884730E04FF000002DE03E
S2144011104FF000002AE041F62C41C2F20001CA8896
S214401120B2B941F62C43C2F20003588898B941F64A
S2144011302C44C2F20004207943F29101C0F24001EF
S2144011408847207942F6CD42C0F2400290470DE0F3
S2144011504FF000000AE04FF0000007E04FF00000BC
S21440116004E04FF0000001E04FF0000000287BD183
S21440117041F62C43C2F20003187800F01F01012903
S2144011802DD141F61232C2F2000213783BB341F63B
S2144011902C44C2F20004247941F60835C2F2000518
S2144011A02D6828680179A14219D920464FF00001E0
S2144011B040F69D22C0F24002904780B16B6853F8DB
S2144011C02450E86880470146204640F69D22C0F2FB
S2144011D04002904718B1A9688847002847D141F691
S2144011E02C43C2F20003187800F01F02022A41D1B5
S2144011F041F61231C2F200010B7833B341F60830A3
S214401200C2F2000003681A68117909B34FF000046F
S21440121040F69D26C0F2400641F60837C2F2000767
S2144012205D6855F82450EB68984701462046B0471D
S21440123088B1A868804788B904F10104E4B23B68E5
S2144012401A681179A142EBD8F8BD4FF00000F8BDFE
S2144012504FF00000F8BD4FF00000F8BD4FF0010021
S214401260F8BD4FF00000F8BD4FF00100F8BD4FF05C
S2144012700100F8BD4FF00000F8BD10F0600F7FF49D
S21440128077AF28E610F0600F7FF472AF44E500BFFA
S214401290450B4000C06870470346002849D141F6D8
S2144012A05832C2F20002117800293CD0EFF3108188
S2144012B072B6BFF35F8F40F2AC42C2F200021070CB
S2144012C041F62442C2F20002907800F1FF3090705E
S2144012D049BB40F2AC42C2F200024FF0010111702D
S2144012E0BFF35F8F62B61EE0EFF3108172B6BFF3B6
S2144012F05F8F40F2AC42C2F200024FF00000107026
S21440130041F62442C2F20002907800F1010090704B
S21440131049B940F2AC42C2F200024FF001011170EE
S214401320BFF35F8F62B641F65830C2F200000370DA
S214401330704741F65832C2F2000210780028D3D0E7
S214401340F1E700BF41F62C42C2F200024FF0000324
S21440135013615361938141F65D30C2F20000037021
S214401360704700BF82B041F65D33C2F200034FF0D3
S21440137005021A704FF48040C4F20300016B0091DE
S214401380009B43F04F020092009941F020030093E7
S214401390009A02634FF0000001900199132907D884
S2144013A000BF019B03F101030193019A132AF7D969
S2144013B002B0704782B041F65D33C2F200034FF090
S2144013C003021A704FF48040C4F20300016B009190
S2144013D0009B43F04F020092009941F010030093A7
S2144013E0009A02634FF0000001900199132907D834
S2144013F000BF019B03F101030193019A132AF7D919
S21440140002B0704708B541F62C43C2F20003186993
S21440141000B1804708BD00BFF0B58BB041F65D33E4
S214401420C2F200031878032828D14FF48041C4F252
S21440143003010A6B0092009B43F04F000090009A15
S21440144022F001030093009808634FF000010191D9
S214401450019A132A07D800BF019B03F101030193A9
S21440146001981328F7D941F20541C0F24001884758
S21440147041F24532C0F24002904735E141F65A31DA
S214401480C2F200010B8841F62C42C2F20002948957
S214401490E01A84B2002C4FD141F61832C2F2000254
S2144014A011885B1898B2108041F62C42C2F20002B6
S2144014B0D188814205D041F65C33C2F200031878E9
S2144014C030B341F65D33C2F200034FF004001870AB
S2144014D04FF48041C4F203010A6B0292029B43F030
S2144014E04F000290029A22F001030293029808638A
S2144014F04FF000010391039A132A00F2F58000BFD3
S214401500039B03F10103039303981328F7D9EBE0F9
S21440151041F62C45C2F200056F69CFB1B847B8B165
S21440152041F65A34C2F200044FF00002228041F6DF
S2144015302C41C2F200018C893F2C09D941F65C331C
S214401540C2F200034FF0000018704FF0400406E06F
S21440155041F65C35C2F200054FF001072F7041F6A8
S2144015602C42C2F20002936841F65A31C2F20001A0
S2144015700F88EFF31080D0F1010538BF002572B612
S214401580BFF35F8F40F2AC42C2F200024FF0000160
S21440159011704FF48040C4F20300026B12F0020F49
S2144015A002D1002C31D152E04DB140F2AC43C2F2F0
S2144015B000034FF001001870BFF35F8F62B641F62C
S2144015C05D31C2F200014FF004020A704FF48043CE
S2144015D0C4F20303186B0490049941F04F0204923E
S2144015E0049820F001010491049A1A634FF0000316
S2144015F005930598132877D800BF059901F1010196
S2144016000591059A132AF7D96EE04FF48040C4F24C
S214401610030004F1FF3101F00101DB1913F8012B3F
S21440162002654FF00102944260D810E0194611F866
S214401630016B066502F1010202F0FF025B7803656A
S21440164001F1010302F10102D2B29442EED8E4194C
S21440165041F65A30C2F2000004804FF48041C4F292
S21440166003010A6B0692069B43F04F000690069ACB
S21440167042F010030693069808634FF00001079166
S214401680079A132A07D800BF079B03F10103079365
S21440169007981328F7D94FF48041C4F203010A6B28
S2144016A00892089B43F04F000890089A22F00103E6
S2144016B00893089808634FF000010991099A132A85
S2144016C007D800BF099B03F1010309930998132823
S2144016D0F7D94DB140F2AC41C2F200014FF00102E1
S2144016E00A70BFF35F8F62B60BB0F0BD49B20029F7
S2144016F09CD013F8011B016502F10102D2B294425C
S21440170094D8A4E738B50346447C04F01000C4B22D
S214401710C4B15C7C6FF304145C741C6894B14FF4E1
S2144017208045C4F2030502F10C0055F8200010F481
S214401730806F18BF42F08002012914BF00200120AC
S2144017409968A04738BD00BF08B500F00F0202F107
S214401750FF3000EB800141F61C33C2F2000303EB7E
S21440176081004FF0010141F20573C0F240039847F3
S21440177008BD00BF10B485B000F1FF3202EB820115
S21440178041F61C33C2F2000303EB81024FF4804360
S214401790C4F2030300F10C0153F8213003F0420376
S2144017A0422B0FD04FF48043C4F2030353F821304A
S2144017B013F0020F537C12BF6FF38303012161F3D2
S2144017C083035374517C11F00C0F2BD14FF480439C
S2144017D0C4F2030300F10C0153F821400094009C2E
S2144017E044F04F040094009C24F002040094009CB3
S2144017F043F821404FF0000301930199132907D87D
S21440180000BF019B03F10103019301991329F7D906
S21440181070B303282CD0507C4FF0010363F3830051
S214401820507425E04FF48043C4F2030300F10C00EB
S21440183053F820100291029941F04F01029102990B
S21440184021F040010291029943F820104FF0000029
S2144018500390039B132B07D800BF039901F10101A6
S214401860039103981328F7D9537C6FF3830353747B
S21440187005B010BC704700BF2DE9F00F82B005469A
S21440188000F1FF3606EB860241F61C33C2F2000337
S21440189003EB8206727CC2F3810320B1032814BF97
S2144018A00222012201E04FF001029A4240F31581E4
S2144018B0F268B468A24206D3737C03F04003DBB2FE
S2144018C0002B00F00D81736803EB0208C2EB04099D
S2144018D0338A4FEA83534FEA9353994526BF994636
S2144018E04FF0000C4FF0010C4A44F260B9F1070F7C
S2144018F040F289804F4642464FF48043C4F2030389
S214401900A9F1080ACAF3C00A98F800B005F1140411
S21440191043F824B098F801B043F824B098F802B0E1
S21440192043F824B098F803B043F824B098F804B0CD
S21440193043F824B098F805B043F824B098F806B0B9
S21440194043F824B098F807B043F824B002F10802F0
S214401950A7F10807072F00F2DB804BE092F800A0C3
S21440196005F1140443F824A092F801A043F824A0FB
S21440197092F802A043F824A092F803A043F824A0CB
S21440198092F804A043F824A092F805A043F824A0B7
S21440199092F806A043F824A092F807A043F824A0A3
S2144019A002F1080492F808A005F1140243F822A0B8
S2144019B094F801A043F822A094F802A043F822A08D
S2144019C094F803A043F822A094F804A043F822A079
S2144019D094F805A043F822A094F806A043F822A065
S2144019E094F807A043F822A004F10802A7F11007D4
S2144019F0072FB3D8A9F1080323F0070202F1080223
S214401A00904409F00709B9F1000F24D0C1444FF4BF
S214401A108044C4F203046FEA080709EB070303F0A7
S214401A20010A434613F8017B05F1140244F822707C
S214401A304B4561D10FE01A4612F8018B05F11407A9
S214401A4044F827805F7805F1140344F8237002F1C8
S214401A5001034B45EFD1737CC3F3810202F10102CF
S214401A6062F38303737409B34FF48041C4F20301F5
S214401A7000F10C0051F820300093009A42F04F03DA
S214401A800093009A42F010030093009A41F82020F9
S214401A904FF0000001900199132907D800BF019B21
S214401AA003F101030193019A132AF7D9BCF1000F01
S214401AB003D0707C6FF386107074F168B3689942F7
S214401AC011D3727C02F04000C1B279B9737C43F006
S214401AD0800272744FF000000AE04FF0010007E009
S214401AE04FF0000004E04FF0010001E04FF001002D
S214401AF002B0BDE8F00F7047BAF1000F9BD013F864
S214401B00017B05F1140244F822704B4593D1A2E7BD
S214401B10BAF1000F3FF422AF92F800A005F114048A
S214401B2043F824A092F801A043F824A092F802A01B
S214401B3043F824A092F803A043F824A092F804A007
S214401B4043F824A092F805A043F824A092F806A0F3
S214401B5043F824A092F807A043F824A002F1080214
S214401B60A7F10807072F3FF6F9AE43E72DE9F04700
S214401B70B0B044F27943C0F24003984798B94FF466
S214401B808040C4F20300C16911F4807F0BD172B665
S214401B90BFF35F8F40F2AC41C2F200014FF000024B
S214401BA00A7000F041BF4FF0220044F27132C0F29A
S214401BB0400290474FF48043C4F20303986910F400
S214401BC0006F15D04FF48041C4F20301CB6913F483
S214401BD0006F0DD04FF48041C4F203014FF4006310
S214401BE00B6240F6A140C0F24000804700F01CBFA8
S214401BF04FF48040C4F20300C16911F0010F00F0B9
S214401C00A7824FF48043C4F20303186B10F0040F0E
S214401C1000F01F8141F65D30C2F2000002784AB102
S214401C2041F20543C0F24003984741F24531C0F2C5
S214401C30400188474FF48040C4F20300026BC2F371
S214401C400A43082B24D04FF48040C4F20300026BB2
S214401C500292029B43F04F010291029A22F0040343
S214401C600293029901634FF000000390039A132AEF
S214401C7007D800BF039B03F101030393039913297D
S214401C80F7D941F26530C0F24000804700F0CCBE44
S214401C904FF48040C4F20300016D41F62C42C2F27C
S214401CA000021170036D5370016D9170036DD37017
S214401CB0016D1171036D5371016D9171006DD0719D
S214401CC040F6E942C0F24002904720BB4FF48041C4
S214401CD0C4F203010A6B0492049840F04F03049345
S214401CE0049A22F004000490049B0B634FF000011A
S214401CF00591059A132A07D800BF059800F1010000
S214401D000590059B132BF7D941F26531C0F240018F
S214401D10884700F089BE41F62C43C2F2000393F98F
S214401D200010002955DA4FF48040C4F20300036BDC
S214401D300693069A42F04F010691069B43F08002B6
S214401D400692069901634FF000000790079B132BFD
S214401D5007D800BF079A02F1010207920799132994
S214401D60F7D94FF48040C4F20300036B0893089AF7
S214401D7042F04F010891089B23F00402089208990C
S214401D8001634FF000000990099B132B07D800BF52
S214401D90099A02F10102099209991329F7D94FF0DD
S214401DA0000041F61833C2F20003188041F65A325A
S214401DB0C2F20002108041F65D31C2F200014FF0DF
S214401DC00200087041F21943C0F24003984700F001
S214401DD02BBE4FF48040C4F20300026B0A920A9B6B
S214401DE043F04F010A910A9A22F004030A930A9993
S214401DF001634FF000000B900B9A132A07D800BFE0
S214401E000B9B03F101030B930B991329F7D941F66A
S214401E102C40C2F20000C28832B941F2B531C0F25D
S214401E204001884700F000BE4FF0000341F61831ED
S214401E30C2F200010B8041F65A30C2F20000038025
S214401E4041F65D33C2F200034FF001021A7000F013
S214401E50EBBD4FF48041C4F203010B6B13F0010F4E
S214401E6006D041F21941C0F24001884700F0DCBD7F
S214401E704FF48040C4F20300016B11F0020F00F0F3
S214401E805F8141F65D31C2F200010A78012A33D003
S214401E90022A01D0042A05D141F20542C0F240028E
S214401EA0904704E041F26530C0F2400080474FF46E
S214401EB08043C4F20303196B0C910C9840F04F0218
S214401EC00C920C9921F002000C900C9A1A634FF079
S214401ED000030D930D99132907D800BF0D9800F104
S214401EE001000D900D9A132AF7D941F24533C0F2FE
S214401EF04003984700F098BD4FF48044C4F2030472
S214401F00266BC6F30A4441F62C43C2F20003988976
S214401F1041F65A31C2F200010E8832199042AEBFE5
S214401F20A4B2C6EB000084B241F62C43C2F20003D2
S214401F3098688219A4B34FF48040C4F2030004F1B9
S214401F40FF3505F00105016D02F8011B4FF0010158
S214401F50A142C0F07C850DE0056D134603F8015B99
S214401F60056D557003F1010201F1020101F0FF0118
S214401F70A142F1D3A619B6B241F65A32C2F20002D5
S214401F801680402C0CD141F62C40C2F20000C1888D
S214401F9041F61833C2F200031A889019814253DC86
S214401FA041F62C40C2F20000868142693AB390471F
S214401FB028BB41F26531C0F2400188474FF480406B
S214401FC0C4F20300026B0E920E9B43F04F010E913B
S214401FD00E9A22F002030E930E9901634FF0000012
S214401FE00F900F9A132A00F21F8500BF0F9B03F134
S214401FF001030F930F991329F7D900F015BD4FF43D
S2144020008043C4F20303196B1091109840F04F02BE
S2144020101092109921F002001090109A1A634FF017
S214402020000311931199132907D800BF119800F1A6
S21440203001001190119A132AF7D941F2B533C0F234
S2144020404003984700F0F0BC41F62C41C2F2000134
S2144020508B89B34253D1C04A506910BBBF498847A9
S2144020604FF48040C4F20300026B1292129B43F07E
S2144020704F011291129A22F00203129312990163B1
S2144020804FF000001390139A132A00F2CD8400BF3D
S214402090139B03F10103139313991329F7D900F007
S2144020A0C3BC804710BBAD4B98474FF48041C4F249
S2144020B00301086B1490149A42F04F03149314983B
S2144020C020F002021492149B0B634FF0000115910E
S2144020D01598132800F2A88400BF159A02F1010251
S2144020E01592159B132BF7D900F09EBC9C4A9D4B2E
S2144020F018881188401810804FF000021A804FF45C
S2144021008043C4F20303196B1691169840F04F02B1
S2144021101692169921F002001690169A1A634FF0FE
S214402120000317931799132900F27E8400BF17986F
S21440213000F101001790179A132AF7D900F074BCE3
S2144021404FF48043C4F20303186B10F0080F4DD1D0
S2144021504FF48043C4F20303996911F0020F19D07B
S2144021604FF48040C4F20300436B13F0420F6DD12E
S2144021704FF48041C4F20301486B10F0010F40F069
S214402180F3804FF48043C4F20303596B11F0080FF9
S21440219040F0BE824FF48040C4F20300836913F0DF
S2144021A0040F19D04FF48041C4F20301886B10F03D
S2144021B0420F53D14FF48043C4F20303996B11F09E
S2144021C0010F40F0D9804FF48040C4F20300836B87
S2144021D013F0080F40F09F824FF48041C4F2030191
S2144021E0886910F0080F00F0CF821FE04FF480415E
S2144021F0C4F203010A6B0092009B43F04F0000902C
S214402200009A22F008030093009808634FF00001FC
S2144022100191019A132A00F2078400BF019B03F143
S2144022200103019301981328F7D9FDE34FF4804347
S214402230C4F20303D96B11F0420F7CD04FF0030871
S2144022404FF002074FF0080944460EE04FF00108F1
S2144022504FF000074FF00209444606E04FF00208F0
S2144022604FF001074FF00409444607EB870541F657
S2144022701C36C2F2000606EB8505D5F808E0E9688C
S2144022802F8A4FEA87504FEA90566A6852184FF4A2
S2144022908043C4F2030304F10C0753F82700C0F34D
S2144022A00A47002F00F0B583C1EB0E00B84200F29B
S2144022B09383C5F80CE0002840F09483B0E304F123
S2144022C0140E51F82EC002F803C003F1010304F1C6
S2144022D0140E51F82EC002F803C003F101038342E6
S2144022E0EDD3404641F27572C0F240029047BAF1D3
S2144022F0000F02D1BE4240F297834FF48040C4F2B2
S214402300030004F10C0450F8241011F0200F40F0A4
S2144023108B834FF48043C4F20303C3F81490EA68F7
S214402320AA6028464FF00001424641F20573C0F2CB
S2144023304003984778E34FF48040C4F20300C36BF1
S21440234013F0010F00F0D9814FF003064FF002045E
S2144023504FF00807354616E02C1C00206513400059
S214402360181B00205A1B00204FF001064FF00004B7
S2144023704FF00207354606E04FF002064FF00104E4
S2144023804FF00407354604EB840441F61C31C2F294
S214402390000101EB8404637CC3F3810000F1030079
S2144023A060F383036374D9B201F02002D3B2002BEA
S2144023B000F0928011F00C0F45D04FF48040C4F2EC
S2144023C0030005F10C0250F822101891189B43F0B8
S2144023D04F011891189B43F010011891189B40F834
S2144023E022304FF000001990199A132A07D800BFE0
S2144023F0199901F101011991199B132BF7D94FF443
S2144024008040C4F2030005F10C0550F825201A92CE
S2144024101A9941F04F031A931A9A22F001011A9121
S2144024201A9B40F825304FF000001B901B9A132A49
S21440243000F2FA8200BF1B9901F101011B911B9B20
S214402440132BF7D9F0E24FF48043C4F2030305F1AF
S2144024500C0053F820101C911C9A42F04F011C911E
S2144024601C9A22F001011C911C9A43F820204FF040
S21440247000031D931D98132807D800BF1D9901F12E
S21440248001011D911D9A132AF7D94FF48043C4F2D7
S214402490030305F10C0553F825001E901E9941F0E4
S2144024A04F021E921E9840F020011E911E9A43F83D
S2144024B025204FF000031F931F98132807D800BF0E
S2144024C01F9901F101011F911F9A132AF7D9637CC6
S2144024D06FF345136374A7E211F0800F0ED0607C53
S2144024E06FF3C7106074E168A16020464FF00001AA
S2144024F0324641F20573C0F240039847E268A0684E
S214402500824240D3617C11F04C0F3CD1EFF31080F7
S21440251072B6BFF35F8F40F2AC42C2F200024FF099
S214402520000111704FF48043C4F203035F6130B979
S214402530B9484FF001020270BFF35F8F62B64FF4A6
S2144025408041C4F2030105F10C0551F82530209373
S214402550209840F04F022092209B23F001002090CC
S214402560209A41F825204FF000012191219B132B02
S21440257000F25A8200BF219800F101002190219A72
S214402580132AF7D950E2002E00F08B80032E00F07D
S2144025908880607C10F00C0F49D04FF48040C4F225
S2144025A0030005F10C0350F823102291229A42F0C2
S2144025B04F012291229A42F010012291229A40F82D
S2144025C023204FF000002390239B132B07D800BFF7
S2144025D0239901F101012391239A132AF7D94FF445
S2144025E08040C4F2030005F10C0550F825302493D2
S2144025F0249941F04F022492249B23F00101249118
S214402600249A40F825204FF000002590259B132B58
S21440261007D800BF259901F101012591259A132A73
S214402620F7D930464FF000017C4B9847FCE13046E6
S2144026304FF00101794A904758B9617C6FF3C71152
S2144026406174E368A36020464FF000013246744B45
S21440265098474FF48040C4F2030005F10C0550F84B
S21440266025202692269941F04F032693269A22F05B
S21440267001012691269B40F825304FF00000279018
S214402680279A132A07D800BF279901F101012791FD
S214402690279B132BF7D930464FF000015F4A9047EF
S2144026A0C2E130464FF0010141F67903C0F24003E3
S2144026B098474FF48040C4F2030005F10C0550F8EB
S2144026C025202892289941F04F032893289A22F0F3
S2144026D001012891289B40F825304FF000002990B2
S2144026E0299A132A00F2A08100BF299901F101011D
S2144026F02991299B132BF7D996E14FF48041C4F2D8
S2144027000301C86B10F0080F18BF032205D13BE049
S2144027104FF0010201E04FF002024FF48043C4F252
S214402720030302F10C0153F821002A902A9840F046
S2144027304F002A902A9820F008002A902A9843F8BA
S21440274021004FF000032B932B99132907D800BF85
S2144027502B9800F101002B902B9B132BF7D94FF4AD
S2144027608040C4F2030002F10C0250F8221001F43B
S214402770E063B3F5807F00F057814FF48040C4F2A9
S214402780030050F822304FE14FF48040C4F203007B
S214402790816911F4005F07D04FF48042C4F203020F
S2144027A0D36913F4005F1FD14FF48040C4F2030096
S2144027B0816911F4007F07D04FF48042C4F20302CF
S2144027C0D36913F4007F0FD14FF48040C4F2030066
S2144027D0816911F4806F25D04FF48042C4F2030221
S2144027E0D36913F4806F1DD04FF48044C4F20304C1
S2144027F04FF41851216261614FF0010041F2992374
S214402800C0F2400398474FF48070206220614FF436
S2144028100062226108E100BFAC0400207918400045
S214402820051740004FF48040C4F20300816911F45C
S214402830807F27D04FF48042C4F20302D36913F45A
S214402840807F1FD04FF48043C4F203034FF4807060
S214402850186258614FF400521A614FF400711961C2
S2144028604FF4806018614FF0220044F2F533C0F216
S214402870400398474FF0000041F29922C0F24002D0
S2144028809047D1E04FF48040C4F20300C16911F490
S214402890805F00F0C9804FF48044C4F203044FF4D4
S2144028A08055256241F61C36C2F2000630464FF08F
S2144028B001010A4641F20575C0F24005A84706F1F7
S2144028C014004FF001014FF00202A84706F128001D
S2144028D04FF001014FF00302A84740F63D42C0F2D8
S2144028E040029047636823F001006060616821F011
S2144028F002026260A36843F48070A060A16821F081
S2144029007F02A260236B2C932C9840F04F012C91B1
S2144029102C9A22F4074323F080002C902C9941F403
S21440292000422C922C9B23634FF000002D902D9953
S214402930132907D800BF2D9A02F101022D922D9B34
S214402940132BF7D94FF48040C4F20300016B2E914D
S2144029502E9A42F04F032E932E9941F400422E9227
S2144029602E9B03634FF000002F902F99132907D812
S21440297000BF2F9A02F101022F922F9B132BF7D9FB
S214402980EFF3108072B6BFF35F8F40F2AC42C2F2F4
S21440299000024FF0000111704FF48043C4F203036D
S2144029A04FF001021A6138B940F2AC40C2F2000062
S2144029B00270BFF35F8F62B641F24533C0F2400308
S2144029C098474FF48040C4F203004FF4807202618F
S2144029D04FF40061016127E07B18EB6038464FF00A
S2144029E0000A01E04FF0010A4FF48041C4F20301AF
S2144029F04FF0000300F1FF3C0CF0010E04F1140C04
S214402A0051F82CC002F803C003F1010383420ED3F1
S214402A1067E4404641F27571C0F24001884769E478
S214402A204046124A904768E430B0BDE8F087BEF1B1
S214402A30000F3FF444AC04F1140E51F82EC002F8D7
S214402A4003C003F101038342FFF439AC49E46DB29D
S214402A50002D3FF481AA036D02F8013B01F101010C
S214402A60C9B2A142FFF478AAFFF784BA75174000AE
S214402A704FF00000704700BF4FF48043C4F203039A
S214402A805A6822F0010159609A6822F48071996070
S214402A90024690B14FF48040C4F20300836802F0CF
S214402AA07F0223F07F010A438260836843F480728A
S214402AB08260416841F00103436070474FF48043B1
S214402AC0C4F20303586810F0010F07D04FF480415A
S214402AD0C4F203018A6802F07F0070474FF000009E
S214402AE0704700BF4FF48043C4F2030318684FEAB0
S214402AF040514FEA515070474FF00000704700BFBA
S214402B0041F62C43C2F2000398609981704700BF9B
S214402B1030B482B000F00F03032B00F283804FF4F2
S214402B208044C4F2030403F10C0554F8254014F421
S214402B30004F7AD101F00304012C03D1002B77D04B
S214402B40032B78D0A3F10404E4B2012C8CBF4024BC
S214402B504FF40074944271DB03F1FF3505EB8504B6
S214402B6041F61C35C2F2000505EB8404258A62F363
S214402B7009052582627C02F07F056FF34515657472
S214402B80C00903D0EAB26FF3830262744FF4804206
S214402B90C4F20302956A4FF0010404FA03F4254395
S214402BA09562956A25EA0404946203F10C0452F88F
S214402BB024200092009A42F04F020092009A22F49B
S214402BC0074222F08002009240B141F004024FEAF0
S214402BD0022000F4E06141F4004105E04FEA0121A3
S214402BE001F4E06040F40041009A41EA020000909F
S214402BF000994FF48042C4F2030203F10C0342F8FA
S214402C0023104FF0000301930198132819D800BFF2
S214402C10019901F101010191019A132AF7D94FF068
S214402C20010010E04FF000000DE04FF000000AE019
S214402C304FF0000007E04FF0000004E04FF00000C7
S214402C4001E04FF0010002B030BC704708B500F01C
S214402C500F03032B10D84FF48042C4F2030203F153
S214402C600C0352F8231021F4004142F8231041F29D
S214402C704973C0F24003984708BD00BF00F00F00FC
S214402C8003281FD800F1FF3303EB830141F61C32C3
S214402C90C2F2000202EB8103597C01F02002D3B25B
S214402CA06BB94FF48041C4F2030100F10C0051F8B7
S214402CB0200010F0280F0CBF0020012070474FF076
S214402CC0010070474FF00000704700BF10B483B05B
S214402CD000F00F02032A7DD8EFF31081D1F10101F5
S214402CE038BF002172B6BFF35F8F40F2AC43C2F2EA
S214402CF000034FF000041C7010F0800F33D002F138
S214402D00FF3000EB800341F61C34C2F2000404EBB3
S214402D1083034FF48040C4F2030002F10C0450F8E1
S214402D20240010F0100F04D1587CC0F38100012815
S214402D3019DD587C40F0200058744FF0010303FA28
S214402D4002F24FF48040C4F203000261002944D0EE
S214402D504FF0010040F2AC41C2F200010870BFF3F0
S214402D605F8F62B63EE04FF48043C4F2030302F145
S214402D700C0053F820400094009C44F04F0400940C
S214402D80009C44F020040094009C43F820404FF000
S214402D90000301930198132807D800BF019B03F155
S214402DA00103019301981328F7D94FF0010303FA62
S214402DB002F24FF48040C4F20300026181B14FF04A
S214402DC0010040F2AC41C2F200010870BFF35F8FD1
S214402DD062B607E04FF0000004E04FF0010001E06B
S214402DE04FF0010003B010BC704700BF10B584B070
S214402DF000F00F00032873D800F1FF3202EB820187
S214402E0041F61C33C2F2000303EB8102517C6FF3A0
S214402E10451151744FF48043C4F2030300F10C0192
S214402E2053F8213013F0200F5DD04FF48043C4F2A6
S214402E30030353F821400094009C44F04F04009450
S214402E40009C24F020040094009C43F821404FF05E
S214402E5000010191019B132B07D800BF019C04F190
S214402E600104019401991329F7D94FF48043C4F221
S214402E7003039C6A4FF0010101FA00F10C439C6287
S214402E809C6A24EA0101996200F10C0053F8201074
S214402E900291029941F04F010291029921F00801F6
S214402EA00291029943F820104FF000000390039BD4
S214402EB0132B07D800BF039901F101010391039832
S214402EC01328F7D9537C03F01001C8B270B1537C75
S214402ED06FF304135374126890474FF0010007E0F5
S214402EE04FF0000004E04FF0010001E04FF0010019
S214402EF004B010BD2DE9F04100F00F04032C00F2A1
S214402F00AF804FF48045C4F2030504F10C0655F833
S214402F10265015F4004F00F0A78004F1FF3606EB6C
S214402F20860741F61C35C2F2000505EB87056E7C28
S214402F3006F02007FFB2002F40F09A804FF48047FB
S214402F40C4F2030704F10C0C57F82C7017F0200F4E
S214402F5040F09280EFF31087D7F1010738BF002783
S214402F6072B6BFF35F8F40F2AC4CC2F2000C4FF02B
S214402F7000088CF8008006F01006F6B25EB1002F0E
S214402F807ED04FF001038CF80030BFF35F8F62B6FF
S214402F904046BDE8F0816E7C46F010066E744FB138
S214402FA040F2AC46C2F200064FF001073770BFF35E
S214402FB05F8F62B66A60AB604FF00002EA60069AC6
S214402FC02A6021B9D3F1010138BF002101E04FF05A
S214402FD001016B7C61F386136FF3C7136B74EFF3D9
S214402FE0108572B6BFF35F8F40F2AC41C2F200016B
S214402FF04FF000020A704FF0010101FA04F14FF45D
S2144030008043C4F20303196110F0800F1BD04FF4C5
S2144030108040C4F2030004F10C0250F8221011F074
S214403020110F10D120464FF0010141F67903C0F24E
S2144030304003984738B120464FF0000141F67902E8
S214403040C0F240029047FDB94FF0010040F2AC415B
S214403050C2F200010870BFF35F8F62B6BDE8F08130
S2144030604FF00000BDE8F0814FF00000BDE8F08171
S2144030704FF00000BDE8F0814FF00000BDE8F08161
S2144030804FF00000BDE8F0814FF00100BDE8F08150
S2144030902DE9F04184B000F00F04032C00F2E180EB
S2144030A0EFF3108272B6BFF35F8F40F2AC43C2F2CA
S2144030B000034FF00001197025464FF0010606FA4E
S2144030C004F64FF48043C4F203035E614AB940F20B
S2144030D0AC41C2F200014FF001020A70BFF35F8FAD
S2144030E062B610F0800F0CD14FF48040C4F203005B
S2144030F004F10C0350F8231011F0420F40F08E807C
S2144031009DE04FF48043C4F2030304F10C0253F8ED
S214403110221011F0100F50D06CB3032C2BD04FF46C
S2144031208040C4F2030050F8223023F0100140F8EB
S21440313022104FF48042C4F2030205F10C0052F80C
S214403140203013F0100FF8D14FF48040C4F2030043
S21440315004F10C0250F8221041F0100340F82230DF
S2144031604FF48040C4F2030005F10C0250F82210E0
S21440317011F0100FF8D04FF48043C4F2030304F16B
S2144031800C0053F820200092009941F04F02009224
S214403190009921F010020092009943F820104FF059
S2144031A0000301930198132807D800BF019A02F143
S2144031B00102019201991329F7D94FF48043C4F2D2
S2144031C0030304F10C0053F820200292029941F0C8
S2144031D04F020292029921F001020292029943F8AC
S2144031E020104FF0000303930398132807D800BF1E
S2144031F0039A02F10102039203991329F7D904F1C5
S214403200FF3303EB830041F61C32C2F2000202EBAE
S21440321080014B7C6FF383034B7410E041F275786A
S214403220C0F240084FF48047C4F203072046C04728
S21440323005F10C0257F8220010F0420FF6D14FF479
S2144032408040C4F20300826A46EA02018162836AD1
S21440325023EA06068662204641F24972C0F24002E0
S214403260904704B0BDE8F08170B582B0064602AC27
S2144032704FF0020344F8043D4FF40045C4F2000505
S2144032802846214643F66532C0F2400290474FF446
S2144032909050C4F20E004FF400114163EE604FF0C0
S2144032A0560040F20103C2F20003984728462146E2
S2144032B043F6A132C0F24002904702B070BD00BF54
S2144032C01EF0040F0CBFEFF30880EFF3098000F008
S2144032D033B8704708B541F23040C4F20E0041F2B0
S2144032E09523C0F24003984710F0020F05D041F6F0
S2144032F05840C2F200000168884708BD40F2AC035F
S214403300C2F2000319704FEA501202F5001303F29E
S21440331007724FEA422339B100F01F004FF0010117
S21440332001FA00F21A63704700F01F004FF00101E7
S21440333001FA00F25A6370472DE9F04F85B0044613
S214403340836913F8020C162800F24181DFE810F07A
S214403350170021002B0033003B0043004B00530076
S21440336086008D003F013F013F013F013F013F0185
S2144033703F013F015B006F009E00B800D9004FF050
S21440338057004FF0010143F2FD23C0F24003984737
S21440339033E14FF057004FF0000143F2FD22C0F2F8
S2144033A04002904729E14FF49053C4F20E034FF485
S2144033B08011196321E14FF49050C4F20E004FF48F
S2144033C08012426319E14FF46063C4F20E034FF477
S2144033D08031196311E14FF46060C4F20E004FF47F
S2144033E08032426309E14FF49053C4F20E034FF427
S2144033F08001196301E14FF49050C4F20E004FF47F
S21440340080024263F9E04FF0B00043F26925C0F213
S2144034104005A8474FF01000A8474FF00000A847C7
S214403420206843F27171C0F240018847E5E0616868
S21440343001F0070242F0B00043F26925C0F24005B1
S214403440A8474FF01000A8474FF00000A847206854
S21440345043F27173C0F240039847CEE0206843F6CB
S214403460D501C0F240018847C7E04FF40040C4F29F
S21440347003004FF0040143F64D52C0F2400290471D
S21440348041F65443C2F200031860B6E0666806F0A0
S214403490070545F0B00043F26925C0F24005A8474D
S2144034A0A668C6F3021040F01000A84706F00F00CA
S2144034B0A847206843F27173C0F2400398479CE0E7
S2144034C024684FEAE4704FF46061C0F22771A4FBB1
S2144034D0012301FB003343F2AF644FF00001A01814
S2144034E041EB030143F2B0624FF0000346F2AD14E5
S2144034F0C0F24004A04740F20102C2F200029047E8
S2144035007BE04FF0000101914FF40044C4F2000408
S21440351043F6653AC0F2400A4FF49059C4F20E0999
S214403520019A02F0070545F0B00043F26926C0F262
S2144035304006B0474FF0100043F26927C0F24007FC
S214403540B8474FF0000043F26923C0F24003984763
S2144035504FF0800B4FF0020840F20107C2F200071E
S21440356043F6A136C0F2400604AD45F8048D204629
S2144035702946D0474FF40010C9F830004FF00001FC
S214403580E1604FF05600B84720462946B0470BF159
S214403590FF3B04AD45F8048D20462946D0474FF4FE
S2144035A00012C9F830204FF00003E3604FF0560099
S2144035B0B84720462946B047BBF1010BD4D1019805
S2144035C000F10100C1B201910429A9D115E04FF0E4
S2144035D0B00043F26924C0F24004A0474FF0100008
S2144035E0A0474FF00000A04748F2A430C0F2400089
S2144035F043F27171C0F24001884705B0BDE8F08FD4
S2144036004FF0010041F65E33C2F200031870704777
S21440361041F65E33C2F200034FF000021A70704764
S21440362070B582B0064602AC4FF0020344F8043D43
S2144036304FF40045C4F200052846214643F665325D
S214403640C0F2400290474FF49050C4F20E004FF440
S21440365000114163EE604FF0560040F20103C2F2A3
S214403660000398472846214643F6A132C0F240025E
S214403670904702B070BD00BFF0B585B04FF490548F
S214403680C4F20E044FF0004666634FF0560040F218
S2144036900105C2F20005A84726634FF05600A8472A
S2144036A04FF0020704AE46F8047D4FF40044C4F2DF
S2144036B00004204643F67523C0F2400398474FF077
S2144036C000050095204631462A4644F64033C0F26F
S2144036D04C0343F6D526C0F24006B0474FF00100F3
S2144036E020604FF0A80043F22164C0F24004A04797
S2144036F04FF01F00A0474FF0D300A0472846A047F2
S2144037004FF04000A0474FF0A100A0474FF0C80040
S214403710A0474FF0DA00A0473846A0474FF0810058
S214403720A0474FF08F00A0474FF0A400A0474FF0AF
S214403730A600A0474FF0D500A0474FF08000A04716
S2144037404FF08D00A0474FF01400A0474FF0DB002D
S214403750A0474FF04000A0474FF0D900A0474FF099
S214403760F100A0474FF0AF00A04705B0F0BD00BF46
S2144037702DE9F04F87B00378002B67D0029040F2D7
S214403780D802C2F2000203924FF40046C4F200068A
S21440379043F66530C0F2400001904FF4905BC4F2AF
S2144037A00E0B7E2B4CD8A3F12003039951F82370BF
S2144037B03B783BB34FF0010540F20109C2F20009E5
S2144037C043F6A134A246C0F2400A17F8058006AC7C
S2144037D04FF0020244F8042D30462146019B98479C
S2144037E04FF40010CBF83000C6F80C804FF056006F
S2144037F0C84730462146D04705F10105EDB2397835
S214403800A942E2D206AC4FF0020244F8042D3046FC
S2144038102146019B98474FF40010CBF830004FF0FC
S2144038200001F1604FF0560040F20102C2F2000281
S21440383090473046214643F6A133C0F240039847AE
S214403840029810F8013F0290002BAAD107B0BDE8BD
S214403850F08F00BF00B585B04FF0000303934FF4E0
S2144038606060C0F22770019042F2107102914FF0F2
S214403870130044F27132C0F2400290474FF40040C9
S214403880C4F2010001A944F27973C0F2400398479C
S21440389005B000BD10B586B04FF000040194059405
S2144038A001438DF804104FF00101029103930492F6
S2144038B04FF04F038DF814304FF40040C4F201002F
S2144038C001A944F2C962C0F240029047C0B206B0B5
S2144038D010BD00BF70B582B005464FF000018DF8B0
S2144038E004108DF8051008464FF0020201AB43F66F
S2144038F09504C0F24004A047044600287AD19DF8BB
S21440390004209DF8053043EA022010F4004F03D10E
S21440391082B24FF0010105E04FEA40414FEA514282
S2144039204FF0FF0141F65F33C2F200031B78032BD2
S21440393060D8DFE803F0021A32484FEAD21049B2A4
S21440394001FB00F045F66D33C0F2400398474FF058
S21440395000024FF00003C3F6E07345F63946C0F266
S2144039604006B047C5E9000144E04FEA92104EB227
S21440397006FB00F045F66D32C0F2400290474FF02D
S21440398000024FF00003C3F6D07345F63946C0F246
S2144039904006B047C5E900012CE04FEA521049B254
S2144039A001FB00F045F66D33C0F2400398474FF0F8
S2144039B000024FF07F5345F63946C0F24006B04706
S2144039C0C5E9000116E04FEA12104EB206FB00F0C1
S2144039D045F66D32C0F2400290474FF000024FF07D
S2144039E00003C3F6B07345F63946C0F24006B0470A
S2144039F0C5E90001204602B070BD00BF10B54FF4C7
S214403A006060C0F2277044F64533C0F240039847E2
S214403A104FF000004FF03E0144F2D122C0F2400287
S214403A20904744F24134C0F24004A0470028FCD0FE
S214403A3044F25130C0F2400080474FF48061C4F2F7
S214403A400E0143F60173C2F213038B6244F26134F3
S214403A50C0F24004A0470028FCD04FF0100044F2CB
S214403A603122C0F24002904744F68D10C0F240002A
S214403A70804710BD10B5044644F28943C0F2400367
S214403A8098474FF080002060616841F00102626014
S214403A90636843F010006060616821F080026260F5
S214403AA020464FF0000144F29D43C0F24003984741
S214403AB0606820F002016160626822F0040363607F
S214403AC020464FF0000144F2B542C0F24002904713
S214403AD010BD00BFF8B505460C46164618464FF4CE
S214403AE06061C0F2277144F28D53C0F2400398479C
S214403AF00746284621684FF00002134644F2C95C48
S214403B00C0F2400CE047284621684FF0080244F2D5
S214403B107153C0F24003984728462168FAB244F2EF
S214403B20A953C0F240039847284621684FF0080240
S214403B3044F21953C0F240039847284621684FEA9A
S214403B40560244F2C943C0F24003984786F0010249
S214403B502846216802F0010244F2F143C0F24003D5
S214403B609847F8BD08B5436813F0040F08D00968B5
S214403B700F2913D844F29D43C0F24003984708BD2E
S214403B80096803290AD84FF0010202FA01F36FEAE6
S214403B90030144F29D42C0F24002904708BD00BF78
S214403BA010B50446236913F4007FFBD020464FF03F
S214403BB00F0144F29D42C0F2400290474FF08070A1
S214403BC0206010BDF8B541F25040C4F20E0044F2F9
S214403BD0C173C0F2400398474FF00B0044F2713473
S214403BE0C0F24004A0474FF00C00A0474FF00D0035
S214403BF0A0474FF49050C4F20E004FF40002026308
S214403C000261C0F8A0204FF46064C4F20E044FF086
S214403C1004056561C4F8A0506566C4F890506565B3
S214403C206562C4F88050216F21F004062667676FEE
S214403C3027F0040363674FF4801202630261C0F802
S214403C40A0204FF4803121632161C4F8A0104FF4C6
S214403C50800606630661C0F8A0604FF00107C0F614
S214403C6000074FF00300394643F6F566C0F24006BB
S214403C70B04728463946B0474FF00C003946B04763
S214403C804FF00D003946B0474FF00E003946B0476A
S214403C904FF009004FF08051B0474FF00A004FF008
S214403CA00101C1F20001B0474FF00107C3F600071B
S214403CB04FF055003946B0474FF05F003946B047A1
S214403CC04FF05B004FF00101C2F60001B047656659
S214403CD0C4F8905065656562C4F88050206F20F047
S214403CE004032367626F22F004016167F8BD00BFDA
S214403CF030B44FF0010404604FF00004446040F2DA
S214403D000225C0F82051C0F80441C0F81441456867
S214403D102B434FEA4202B1FBF2F101F1FF324FEA88
S214403D20026143EA11434360204630BC704700BFFF
S214403D30436819434FEAC212D3B2194341607047F1
S214403D404FF0010303FA01F1016170470F2904D8CF
S214403D5001F1140150F8210070474FF00000704701
S214403D600AB1416670470166704700BFC0F88410CC
S214403D704FEA42024FF40043B3FBF2F101F1FF3247
S214403D804FEA82434FEA9341C0F88C10704700BF19
S214403D9010B44264B1F1C05F30D008D8B1F1006FC2
S214403DA014D0B1F1805F1ED000293BD039E0B1F18C
S214403DB0205F37D003D8B1F1005F32D129E0B1F1AE
S214403DC0405F2FD0B1F1605F2BD12BE0016F046FC5
S214403DD06FEA0203214019400167416F446F21405A
S214403DE00B4043671DE0036F42EA03010167436FE0
S214403DF0416F0B4023EA0203436712E0036F016FF3
S214403E000B4023EA02030367436F42EA030141671C
S214403E1007E0036F42EA03010167436F42EA03018A
S214403E204167426010BC704712F0100F10D0C0F8C7
S214403E30B01012F0200F14BFC0F8D410C0F8D01045
S214403E4012F0400F14BFC0F8C010C0F8C41070473E
S214403E50C0F8B410704700BFC36C0164704700BF21
S214403E6041647047F8B504460D4616461F4643F66D
S214403E706163C0F24003984720462946069A43F6B7
S214403E806153C0F2400398470FB1256500E0656571
S214403E900EB1256300E0656325612560F8BD00BF6F
S214403EA070B504460D46164643F66163C0F24003BD
S214403EB098472046294606F0010243F66153C0F271
S214403EC04003984716F00A0F14BF2562656216F045
S214403ED0020F02D0C4F8805004E016F0080F18BF56
S214403EE0C4F884506561256070BD00BFC06C7047E3
S214403EF0806C7047F0B583B00D464FEA501606F515
S214403F00001101F207724FEA422605F0F044B4F180
S214403F10005F64D00AD8B4F1805F2CD0B4F1C05FA3
S214403F2043D0B4F1006F40F09D800AE0B4F1405FAA
S214403F307ED0B4F1605F7BD0B4F1205F40F09280D9
S214403F4067E000F01F034FF0010404FA03F7304621
S214403F504FF000613A4643F69153C0F2400398470B
S214403F603046394605EA040243F66153C0F2400340
S214403F709847204678E000F01F074FF0010404FA07
S214403F8007F730464FF080513A4643F69153C0F219
S214403F90400398473046394605EA040243F66153E3
S214403FA0C0F24003984720465EE000F01F004FF006
S214403FB0010404FA00F730464FF0C0513A4643F643
S214403FC09153C0F2400398473046394605EA04020A
S214403FD043F66153C0F240039847204644E000F061
S214403FE01F024FF0010404FA02F730464FF000512A
S214403FF03A4643F69153C0F2400398473046394616
S21440400005EA040243F66153C0F24003984720464F
S2144040102AE000F01F014FF00104304604FA01F197
S2144040202A4643F6A163C0F24003984720461BE069
S21440403000F01F034FF0010405F0605205EA04004B
S2144040400090304604FA03F1B2F1605F14BF0022DC
S2144040500122C5F3800343F66565C0F24005A847D4
S214404060204601E04FF0000003B0F0BD2DE9F041DE
S21440407080460E4643F6ED63C0F240039847054639
S214404080404643F6F161C0F240018847054014D0EF
S214404090124C274654F80C0CB0420AD154F8081C6F
S2144040A0294206D022683046904754F8083C25EA14
S2144040B0030504F11004002DEBD141F65C41C2F239
S2144040C00001086838B141F66432C2F20002136853
S2144040D00BB140469847BDE8F08100BF741B0020F6
S2144040E0F8B541F66034C2F200042468062C1CD8A9
S2144040F041F66837C2F200074FEA0416BD19B951B7
S2144041006A60AB600699E96004F1010441F66031EB
S214404110C2F200010C6011461A4643F62963C0F20B
S214404120400398474FF00000F8BD4FF00100F8BD3F
S21440413008B54FF46060C4F20E004FF00B0144F235
S2144041406D03C0F24003984708BD00BF08B54FF462
S2144041508050C4F20E004FF00C0144F26D03C0F2E2
S2144041604003984708BD00BF08B54FF49050C4F2CE
S2144041700E004FF00D0144F26D03C0F24003984725
S21440418008BD00BF2DE9F84305460C46914643F668
S214404190F163C0F240039847804628464FF0FF310F
S2144041A043F66162C0F240029047284643F6ED610E
S2144041B0C0F2400188474FEA541004F01F074FF002
S2144041C0010606FA07F64FF46147CEF2000700F103
S2144041D0200347F8236000F1600247F82260002C75
S2144041E00DDA04F00F044FEA091E5FFA8EF94EF618
S2144041F0FC41CEF20001631883F8189009E04FEABC
S214404200091C5FFA8CF904F1604404F5614484F8B3
S21440421000934FF46142CEF2000242F820602846F6
S214404220414643F65963C0F240039847BDE8F883D9
S2144042304FF48063C4F20E031A6B22F070010843F9
S2144042401863986E10F0080F07D010E000F1FF33A7
S214404250906E10F0080F38D009E04FF400604FF42D
S2144042608062C4F20E02916E11F0080FEED04FF449
S2144042708061C4F20E010A6B22F0030343F0020091
S2144042800863896E11F0080F09D04FF000007047A0
S21440429003F1FF33916E11F0080F13D009E04FF48D
S2144042A000634FF48062C4F20E02906E10F0080F66
S2144042B0EED04FF0000070474FF0010070474FF0CF
S2144042C001007047013BF0D1F9E7581ECBD1F3E728
S2144042D088B14FF48061C4F20E01086A4FF6FC7252
S2144042E0CFF6C86202404FF00203C0F2371342EAEC
S2144042F00300086270474FF48063C4F20E031A6AE4
S21440430022F45C1020F0030242F45C1040F00102FC
S2144043104FEA016142EA114018624FF48062C4F2EB
S2144043200E02936E13F0010FFBD04FF48061C4F27F
S2144043300E01086A40F09B7242F480330B6270476D
S2144043404FF48063C4F20E03986E00F480307047DA
S2144043504FF48063C4F20E034FF000529A627047E7
S2144043604FF48063C4F20E03986E00F0020070476C
S214404370222835D81F2817D84FF48061C4F20E0182
S2144043808A694FF0010303FA00F31A4093422AD099
S2144043904FF0010101FA00F04FF48062C4F20E02C1
S2144043A010614FF0000070474FF48063C4F20E0374
S2144043B0D3F80821A0F120004FF0010101FA00F1E6
S2144043C00A40914212D04FF0010303FA00F04FF436
S2144043D08062C4F20E02C2F800014FF0000070473F
S2144043E04FF0010070474FF0000070474FF000005C
S2144043F0704700BF222835D81F2817D84FF4806151
S214404400C4F20E018A694FF0010303FA00F31A4022
S21440441093422AD14FF0010101FA00F04FF4806236
S214404420C4F20E0250614FF0000070474FF48063B4
S214404430C4F20E03D3F80821A0F120004FF001018A
S21440444001FA00F10A40914212D14FF0010303FAFB
S21440445000F04FF48062C4F20E02C2F804014FF03E
S214404460000070474FF0010070474FF00000704763
S2144044704FF00000704700BF41F6D833C2F2000349
S214404480187880F00100704708B54FF0150044F2E8
S2144044907133C0F24003984708BD00BF436823F419
S2144044A07022426043684FEA014101F47022134390
S2144044B043607047436823F07F424260436843EA64
S2144044C001614160704700BF42B101F10C0150F8F4
S2144044D0213043F0010240F82120704701F10C01E1
S2144044E050F8213023F0010240F82120704700BFE9
S2144044F042B101F10C0150F8213043F0020240F87D
S2144045002120704701F10C0150F8213023F00202BF
S21440451040F82120704700BF042A0ED101F10C015B
S21440452050F8213023F0080240F8212050F821307E
S21440453043F0040240F82120704772B901F10C01A3
S21440454050F8213023F0080240F8212050F821305E
S21440455023F0040240F821207047082A07D101F1D1
S2144045600C0150F8213043F0080240F821207047F3
S21440457001F10C0150F8213023F0F00340F82130CF
S21440458050F821301A4340F82120704700F1FF339D
S2144045905918B1FBF0F000F1FF32FE2A94BF80B20A
S2144045A04FF6FF7000B2704701F10C0150F8213011
S2144045B023F47F4340F8213050F8213043EA02226A
S2144045C040F82120704700BF10B401F10C0150F8AC
S2144045D02140A4B240F8214050F821404FEA0363FE
S2144045E043EA0242144340F8214010BC704700BFE3
S2144045F00A4659B103780129C4BF417841EA0323EA
S214404600022A05DD807840EA032301E04FF00003EC
S214404610184670474FF0080303604FF020010160D2
S2144046204FF00402026070474FF4D453C0F20603C2
S214404630994245D84FEA4101B2FBF1F2A2F1040299
S214404640FF2A2ED94FEA5202FF2A18D94FEA5202C1
S214404650FF2A17D94FEA5202FF2A16D94FEA5202CA
S214404660FF2A15D94FEA5202FF2A14D94FEA5202BE
S214404670FF2A13D94FEA52024FF0070313E04FF0D8
S214404680010310E04FF002030DE04FF003030AE091
S2144046904FF0040307E04FF0050304E04FF0060335
S2144046A001E04FF000034FEA02614FEA034343EA5A
S2144046B01141D2B241EA020303614FF00000704755
S2144046C04FF00100704700BF70B50546CC688E6855
S2144046D0002C41D04FF0000343604A684FEA022066
S2144046E000F4407242F48052087C4FEA004000F4E6
S2144046F0FE0002436A60EB600846496844F2F153A4
S214404700C0F240039847E8604FF0010129604FF03F
S214404710020112E0286A10F4807F20D1012C04D1D7
S214404720296010F0020FF5D002E010F0020F09D019
S2144047302B6B06F8013B013C06D0286A10F4807FBC
S214404740ECD00FE0002CE5D12A6A12F0010FFBD026
S2144047502B6A4FF0000070BD4FF0010070BD4FF067
S214404760050070BD4FF0050070BD00BF4FF08003E0
S2144047700360036B704700BF38B504460D464FF0E4
S214404780FF338362036A44F26D71C0F2400188478A
S214404790204644F21562C0F24002904720466968BF
S2144047A02A6844F22963C0F240039847012814BFA0
S2144047B000200120697A012904BF4021216038BDCC
S2144047C04FF4004343607047FEE700BF38B547F6F6
S2144047D0B863C2F2000383F30988BFF36F8FEFF329
S2144047E0148040F0020181F31488BFF36F8F40F2CB
S2144047F00004C2F2000448F22C72C0F24002A24208
S21440480003D05A4D5A4BAB4204D35A4B5A4A9A425B
S21440481026D343E059485A490C1A24F003054FF072
S214404820000340F20002C2F2000248F22C71C0F2CD
S214404830400105F10400C5F380045D589D5003F126
S2144048400403834240F08680DFE75D589D5003F1C5
S21440485004035C589C5003F104038342F5D1D4E72B
S214404860484D4949481B20F0030440F60053C2F225
S2144048700003E2184FF00001501BA0F10400C0F303
S214404880800445F8041F95425DD107E005F1040316
S214404890696005F1080559609542F7D140F2000578
S2144048A0C0F2400525F07F014FF46D42CEF2000283
S2144048B0916005F16040B0F5203F07D24FF46D445B
S2144048C0CEF20004A36843F00055A56046F64101C9
S2144048D0C0F24001884745F23152C0F2400290474C
S2144048E045F20D10C0F2400048F2BC31C0F2400123
S2144048F04FF0800240F20934C0F24004A04744F62C
S2144049001550C0F2400048F2C431C0F240014FF0AA
S2144049108002A04745F2B170C0F2400048F2D43160
S214404920C0F240014FF08002A04740F22520C0F27E
S21440493040008047EFF3148343F0010585F3148865
S214404940BFF36F8FFEE7002CA0D045F8041F9542BA
S2144049509CD1A3E7002C3FF478AF5C589C5003F101
S214404960040383427FF471AF4FE700BF000D002081
S21440497000000020B41E0020000D0020040000208F
S214404980030D0020FC0C0020AF1E00204FF4806377
S214404990C4F20E03186B00F00303032B00F2A98049
S2144049A0DFE803F002144F4F41F21040C4F20E000D
S2144049B0416911F0800F40F2B043C2F2000314BFC9
S2144049C04FF400424FF4FA421A6092E04FF480638C
S2144049D0C4F20E03186A10F0807F09D04FF4D85303
S2144049E0C0F2B70340F2B042C2F20002136080E069
S2144049F04FF41061C0F23D0140F2B042C2F20002F4
S214404A0011604FF48063C4F20E03186A00F0700120
S214404A10102902D020296CD109E04FF49050C0F202
S214404A207A0040F2B041C2F20001086061E04FF403
S214404A30D853C0F2B70340F2B042C2F2000213604D
S214404A4057E04FF48062C4F20E02136A13F0807F80
S214404A5009D04FF4D853C0F2B70340F2B042C2F286
S214404A600002136027E04FF41063C0F23D0340F2AB
S214404A70B042C2F2000213604FF48063C4F20E03E9
S214404A801A6A02F07003102B02D0202B13D109E0D3
S214404A904FF49053C0F27A0340F2B042C2F20002A2
S214404AA0136008E04FF4D853C0F2B70340F2B04268
S214404AB0C2F2000213604FF48063C4F20E031A6B16
S214404AC002F00303022B4FF48062C4F20E0207BFCB
S214404AD0906A916AD06AD16A40F2B043C2F200034B
S214404AE0C0F30A401A6800FB0220C9B2B0FBF1F2DC
S214404AF01A604FF48062C4F20E02106B00F0700130
S214404B0070290ED140F2B043C2F2000318684AF64C
S214404B10AB22CAF6AA22A2FB00014FEA5100186057
S214404B2070474FF48063C4F20E031A6B40F2B040F5
S214404B30C2F20000C2F30211036823FA01F30360D5
S214404B40704700BF42F6FF43C0F2311398420CD87C
S214404B504FF42063C4F20E034FF0000018604FF489
S214404B604061C4F20E010860704745F6FF11C0F27E
S214404B70622188420CD84FF42060C4F20E004FF4F5
S214404B80807101604FF44062C4F20E0211607047BB
S214404B9048F2FF63C0F2933398420CD84FF420613A
S214404BA0C4F20E014FF400720A604FF44063C4F240
S214404BB00E031A6070474BF2FF31C0F2C441884280
S214404BC00CD84FF42063C4F20E034FF440721A60C0
S214404BD04FF44060C4F20E00026070474EF2FF038E
S214404BE0C0F2F55398424FF42060C4F20E0094BFD2
S214404BF04FF480624FF4A06202604FF44061C4F20A
S214404C000E010A60704700BF41F6DC33C2F2000373
S214404C10196841B941F6DC33C2F2000347F6B86280
S214404C20C2F200021A6041F6DC31C2F200010B68A3
S214404C30181808601846704770B582B0064602AC31
S214404C404FF0020344F8043D4FF40045C4F200051B
S214404C502846214643F66532C0F2400290474FF45C
S214404C609050C4F20E004FF400114163EE604FF0D6
S214404C70560040F20103C2F20003984728462146F8
S214404C8043F6A132C0F24002904702B070BD00BF6A
S214404C9008B103DF00E002DF09B105DF00E004DF12
S214404CA00AB107DF704706DF704700BF13DF704763
S214404CB014DF7047F8B50F4616461D464FF0000104
S214404CC044F6AD44C0F24004A04738464FF00101D8
S214404CD0A04730464FF00201A04728464FF0030158
S214404CE0A047F8BD16DF704708DF704709DF41F67A
S214404CF05443C2F2000318684FF0640202FB00F10E
S214404D004FEA1133C3F1640041F65042C2F200024A
S214404D10106070472DE9F04746F22050C0F211006F
S214404D2040F20103C2F20003984741F6E830C2F26F
S214404D3000004FF0000202704FF00107064648F2AE
S214404D405709C0F2080940F2010AC2F2000A4FF0C1
S214404D5000044FF00005C4F236053178002900F013
S214404D60888017F0010F09D041F64840C2F2000093
S214404D7044F6E941C0F2400188472CE041F6A0687D
S214404D80C2F2000841F64840C2F20000D0E90001F5
S214404D9046F26D12C0F240029047C2B2404648F218
S214404DA07C41C0F2400146F6E103C0F2400398471A
S214404DB040464FF001014FF06A0244F6B148C0F257
S214404DC04008C04748F28040C0F240004FF0010122
S214404DD04FF07702C04707F101074846D04741F6F3
S214404DE04840C2F20000D0E9000122462B4646F277
S214404DF0591CC0F2400CE04768B148F28440C0F20B
S214404E0040004FF002014FF0570244F6B143C0F263
S214404E1040039847A1E741F64842C2F20002D2E971
S214404E2000014FF000024FF00003C4F2350346F293
S214404E301D18C0F24008C04768B148F29040C0F222
S214404E4040004FF002014FF0570244F6B143C0F223
S214404E504003984781E748F29C40C0F240004FF03C
S214404E6002014FF0570244F6B143C0F24003984760
S214404E7073E73378002B7FF470AF48F27440C0F28B
S214404E8040004FF001014FF06A0244F6B148C0F2CC
S214404E904008C04748F29C40C0F240004FF0020134
S214404EA04FF05702C04758E740F2B443C2F20003FF
S214404EB01868032802D0042832D11BE041F6E833B4
S214404EC0C2F20003187838B141F6E831C2F2000168
S214404ED04FF000020A70704741F6E831C2F2000116
S214404EE00A78EAB941F6E833C2F200034FF001000F
S214404EF01870704741F6EC31C2F200010A68012A88
S214404F0007D141F6EC31C2F200014FF000020A60D0
S214404F10704741F6EC33C2F200034FF001001860D0
S214404F20704700BF10B5044642F66E00C0F21A0045
S214404F3040F20103C2F20003984740F2BC40C2F27E
S214404F4000000168042946D141F6E030C2F2000074
S214404F500278002A40F0A780012C07D140F2B841E1
S214404F60C2F200014FF0FF320A6010BD022C28D179
S214404F7040F2B441C2F200010B68E3B940F2BC41D2
S214404F80C2F200014FF006020A6041F6E433C2F274
S214404F9000034FF00300186040F2B841C2F200012F
S214404FA04FF001020A6040F2B443C2F200034FF0F1
S214404FB00200186010BD40F2B440C2F20000036820
S214404FC010BD032C76D140F2B840C2F200004FF03C
S214404FD00102026010BD062937D141F6E033C2F225
S214404FE000031A78002A5ED1012C1CD140F2BC4046
S214404FF0C2F200004FF00402026041F6E431C2F211
S21440500000014FF000030B6040F2B440C2F20000D3
S2144050104FF00202026040F2B841C2F200014FF087
S21440502001030B6010BD022C05D144F6A963C0F203
S2144050304003984710BD032C3CD140F2B840C2F222
S21440504000004FF00101016010BD41F6E032C2F2AF
S214405050000213783BB3022925D1012C2AD140F215
S214405060BC40C2F200004FF00601016041F6E0335A
S214405070C2F200034FF000021A7041F6E430C2F26A
S21440508000004FF00301016040F2B443C2F2000357
S2144050904FF002021A6040F2B840C2F200004FF0F1
S2144050A00101016010BD40F2B841C2F200014FF06C
S2144050B001030B6010BD00BF08B50D2809D1B1F142
S2144050C0804F06D14FF0030044F62573C0F24003EC
S2144050D0984708BD08B50D2809D1B1F1005F06D143
S2144050E04FF0020044F62573C0F24003984708BDCF
S2144050F008B50B2808D1012906D14FF0010044F627
S2144051002573C0F24003984708BD00BF2DE9F04F15
S21440511087B040F2BC43C2F20003029340F2B8406C
S214405120C2F2000003904FF4905AC4F20E0A41F6C1
S214405130E032C2F200021178002940F0EE81029C73
S2144051402568022D40F090804FF00100014602464F
S21440515044F69144C0F24004A0474FF0000201924A
S2144051604FF40044C4F2000443F66539C0F24009E7
S214405170019E06F0070747F0B00044F63943C0F2F8
S214405180400398474FF0100044F63945C0F24005BA
S214405190A8474FF0000044F63941C0F24001884726
S2144051A04FF0800B4FF0020840F20107C2F20007B2
S2144051B043F6A136C0F2400606AD45F8048D2046BB
S2144051C02946C8474FF40010CAF830004FF0000296
S2144051D0E2604FF05600B84720462946B0470BF1EC
S2144051E0FF3B06AD45F8048D20462946C8474FF498
S2144051F00013CAF830304FF00001E1604FF056001F
S214405200B84720462946B047BBF1010BD4D1019F91
S21440521007F10107FEB20196042EA9D148F2C84014
S214405220C0F2400048F2E441C0F2400148F2005269
S214405230C0F2400248F22453C0F2400344F6B5445C
S214405240C0F24004A0474FF00000039A1060154695
S2144052502B68002BFCD04FF00101039F39604FF0C4
S2144052600406029C266058E1042D02D0062D40F02C
S2144052705481039E3768002F00F04F8148F61C206B
S214405280C0F2060040F20103C2F2000398473068BD
S214405290012819D140F2B445C2F200052F6841F604
S2144052A0E431C2F200010B6807F101074AF6AB246D
S2144052B0CAF6AA24A4FB07404FEA500606EB46026D
S2144052C0BF1AF91829602BE0039A1168B1F1FF3F25
S2144052D026D140F2B444C2F2000425683DB940F2FB
S2144052E0B446C2F200064FF00202326018E040F2C6
S2144052F0B446C2F20006376841F6E433C2F2000311
S214405300186807F1FF324AF6AB21CAF6AA21A1FB7C
S21440531002454FEA550404EB4407D31B1818306087
S21440532044F6E545C0F24005A8474FF0B00044F6C5
S2144053303944C0F24004A0474FF01000A0474FF059
S2144053400000A04740F2B443C2F200031868F8B920
S2144053504FF001004FF000010A4644F69143C0F278
S2144053604003984748F24450C0F2400048F2545137
S214405370C0F2400148F20052C0F2400248F26C537C
S214405380C0F2400344F6B545C0F24005A847C0E029
S21440539040F2B446C2F200063268012A1FD14FF0EE
S2144053A000004FF00101024644F69146C0F2400626
S2144053B0B04748F29450C0F2400048F2AC51C0F2B8
S2144053C0400148F20052C0F2400248F26C53C0F22C
S2144053D0400344F6B547C0F24007B84799E040F26C
S2144053E0B447C2F20007396802291FD14FF00000C7
S2144053F001464FF0010244F69145C0F24005A847E9
S21440540048F2C450C0F2400048F2D851C0F24001C1
S21440541048F20052C0F2400248F26C53C0F24003D9
S21440542044F6B544C0F24004A04772E040F2B445AA
S214405430C2F200052C68032C1FD14FF001004FF03C
S21440544000010A4644F69143C0F24003984748F2AA
S214405450F050C0F2400048F20461C0F2400148F209
S2144054600052C0F2400248F21463C0F2400344F6D1
S214405470B547C0F24007B8474BE040F2B443C2F2EB
S2144054800003186804281FD14FF0010001464FF072
S214405490000244F69144C0F24004A04748F2386007
S2144054A0C0F2400048F24461C0F2400148F2005267
S2144054B0C0F2400248F21463C0F2400344F6B546D8
S2144054C0C0F24006B04724E040F2B446C2F20006BE
S2144054D03268052A1DD14FF001000146024644F6C7
S2144054E09147C0F24007B84748F2C450C0F2400067
S2144054F048F25C61C0F2400148F20052C0F24002FD
S21440550048F21463C0F2400344F6B545C0F2400585
S214405510A8474FF000010398016041F23740C0F2BF
S2144055200D0040F20102C2F200029047FFE500BFC4
S2144055302DE9F04F87B043F6FD13C0F2400398477D
S2144055404FF0010440F2AC40C2F200000470BFF3DA
S2144055505F8F62B643F6C531C0F2400188474FF0D0
S21440556020004FF0205143F6F562C0F240029047CB
S2144055704FF01D0044F27137C0F24007B8474FF471
S2144055800045C4F2030528464FF46061C0F2277117
S21440559044F24022C0F20F024FF0000343F6F146B9
S2144055A0C0F24006B04728464FF0040143F6415348
S2144055B0C0F24003984728464FF00001224643F683
S2144055C03155C0F24005A84743F65500C0F24000AA
S2144055D080474FF00B00B8474FF46065C4F20E05A5
S2144055E0284621464FF00A0243F66D5AC0F2400A5A
S2144055F0D04745F2F101C0F24001009128464FF0F5
S2144056000B0122464FF0790344F2E109C0F240090B
S214405610C8474FF46146CEF200064FF4006232604F
S21440562028464FF00B014FF0000244F28518C0F2B6
S2144056304008C0472846214643F65965C0F2400513
S214405640A8474FF00D00B8474FF49054C4F20E04EC
S21440565020464FF000514FF00A02D04745F2D5039E
S214405660C0F24003009320464FF00D014FF0005229
S2144056704FF07903C8474FF4005BC6F800B02046A9
S2144056804FF00D014FF00002C04720464FF000514A
S214405690A8474FF00D00B84720464FF080414FF0E6
S2144056A00A02D04745F2B907C0F2400700972046A5
S2144056B04FF00D014FF080424FF07903C847C6F8CF
S2144056C000B020464FF00D014FF00002C047204684
S2144056D04FF08041A84743F27960C0F240008047CF
S2144056E04FF0000103914FF40044C4F2000443F627
S2144056F0653AC0F2400A4FF49059C4F20E09039E30
S21440570006F0070242F0B00044F63945C0F24005C4
S214405710A8474FF0100044F63943C0F2400398477C
S2144057204FF0000044F63947C0F24007B8474FF004
S214405730800B4FF0020840F20107C2F2000743F622
S214405740A136C0F2400606AD45F8048D20462946EF
S214405750D0474FF40010C9F830004FF00001E16028
S2144057604FF05600B84720462946B0470BF1FF3B5E
S21440577006AD45F8048D20462946D0474FF4001222
S214405780C9F830204FF00003E3604FF05600B847AA
S21440579020462946B047BBF1010BD4D1039800F10F
S2144057A00100C1B203910429A9D107B0BDE8F08F2A
S2144057B02DE9F84341F23740C0F20D0040F20103B4
S2144057C0C2F2000398474FF0010441F6EC37C2F2AC
S2144057D0000748F25708C0F2080840F20109C2F232
S2144057E0000941F65046C2F200063868002854D0F8
S2144057F014F0010F05D044F6ED41C0F24001884751
S21440580021E0326841F6A865C2F20005284648F213
S2144058107C41C0F2400146F6E103C0F2400398479F
S21440582028464FF000014FF06A0244F6B145C0F2F8
S2144058304005A84748F26C60C0F240004FF00001B7
S2144058404FF07702A84704F101044046C847326843
S214405850132A0DD848F27060C0F240004FF00201A3
S2144058604FF0000244F6B143C0F240039847BCE70D
S2144058703368502B87BF48F27C60C0F2400048F245
S2144058808860C0F240004FF002014FF0000244F63C
S214405890B145C0F24005A847A7E748F24440C0F2E9
S2144058A040004FF000014FF06A0244F6B145C0F2A6
S2144058B04005A84748F28860C0F240004FF0020119
S2144058C04FF00002A84790E781F0004102E000BF99
